:100000000C9451000C9479000C9479000C947900B4
:100010000C9479000C9479000C9479000C9479007C
:100020000C9479000C9479000C9479000C9479006C
:100030000C9479000C9479000C9479000C9479005C
:100040000C9479000C9479000C9479000C9479004C
:100050000C9479000C9479000C9479000C9479003C
:100060000C9479000C9479000C9479000C9479002C
:100070000C9479000C9479000C9479000C9479001C
:100080000C9479000C9479000C9479000C9479000C
:100090000C94B9020C9443030C941D030C94790046
:1000A0004E0411241FBECFEFCDBFDFE3DEBF18E249
:1000B000A0E0B8E2EAE7FAE002C005900D92A430B1
:1000C000B107D9F728E2A4E0B8E201C01D92A13B34
:1000D000B207E1F710E0C1E5D0E004C02197FE01CE
:1000E0000E94D204C035D107C9F70E948C030C943A
:1000F000F2040C940000FC0154894589252F30E05E
:10010000842F90E0821B930B541710F0CF96089524
:1001100001970895FC0192898389981761F0A3895A
:10012000AE0FBF2FB11D59968C9193899F5F9F731E
:10013000938B90E008958FEF9FEF0895FC019289D3
:100140008389981731F08389E80FF11D818D90E044
:1001500008958FEF9FEF0895FC0192892389892FDD
:1001600090E0805C9F4F821B91098F7399270895BF
:10017000CF93DF93EC01E881F9810680F781E02DD0
:100180000995EC85FD8586818F738683EC85FD85D9
:1001900085818F7585838B898A8B198ADF91CF91B1
:1001A0000895CF92DF92EF92FF920F931F93CF9318
:1001B000DF93EC016A017B01022F8989882339F0E2
:1001C000E881F9810288F389E02DCE0109959889AB
:1001D0008091E205892B8093E2051FB7F89460E0D7
:1001E00070E281EA97E0A70196010E948904690103
:1001F0007A018FEFC81AD80AE80AF80AF694E79449
:10020000D794C794EC85FD8586818D7F8683EC85A8
:10021000FD8586818683198AA09123110A2E000C00
:10022000BB0BA70196010E94CA0420E034E040E025
:1002300050E00E94AB04EC85FD85C20ED31EE41E87
:10024000F51EC086D186EC85FD850783EC85FD858E
:100250008681806C8683EC85FD85858180688583B9
:100260008E858B3228F590E0FC01E05BF54B208118
:100270002F3FF1F0FC01EA5CF54BA081E0E2AE9F7C
:10028000D0011124BC5F845E954BFC013081F0E00D
:10029000E0E03F3F29F0CD014096FC01E30FF11D66
:1002A0009FB7F89412962C938081886080839FBFBB
:1002B0008F858B32F8F490E0FC01E05BF54B4081D8
:1002C0004F3FC1F0FC01EE5FF54BE081EE2329F0DA
:1002D000E13071F110F0E630E8F1FC01EA5CF54B39
:1002E000E08130E2E39FF0011124FC5F20812423B0
:1002F000D9F145838F858B3288F490E0FC01E05B77
:10030000F54B20812F3F51F08A5C954BDC01EC913D
:10031000B0E2EB9FF0011124FC5F21831FBFDF914E
:10032000CF911F910F91FF90EF90DF90CF900895A4
:100330006091010AFC01E45EF54B50815C5F21E0B5
:1003400030E001C0220F5A95EAF72095262320932A
:10035000010AC3CF20E1E29FF0011124E05AF54FDA
:1003600021812F7E2183B9CF845E954BDC018C9156
:10037000309761F08F3F51F07096E80FF11D9FB7F5
:10038000F8948081886080839FBFB4CFF0E0E0E084
:10039000F6CFCF93DF93FC0194898589C485D585F9
:1003A000981306C08D818F7D8D83DF91CF91089545
:1003B000A589AE0FBF2FB11DA75ABF4F2C918589BC
:1003C00090E001968F739927858B80E48C83A485B8
:1003D000B58512962C93948985899813E6CFA485C8
:1003E000B58515968C9115978F7D15968C93878979
:1003F0008823D9F2808D80931301178AD6CFDC0130
:100400001C96ED91FC910FB607FE03C0258125FDDA
:1004100004C0248125FD0C94C9010895EF92FF9238
:100420000F931F93CF93DF93EC0181E0898B9C891D
:100430008D8998131CC0AC85BD8514968C9114973A
:1004400085FF15C012966C93AC85BD8580E414962B
:100450008C93EC85FD8585818F7D858381E090E09F
:10046000DF91CF911F910F91FF90EF9008958091B0
:10047000110180FF08C080911301888F8E898093BD
:10048000130181E08F8BF62E0C8910E00F5F1F4F58
:100490000F731127E02E8D898E1104C0CE010E94AA
:1004A000FF01F9CFEC89EC0FFD2FF11DE75AFF4F4B
:1004B000F0820C8BEC85FD8585818062CECFCF9359
:1004C000DF93FC0121892223C9F0EC018091110105
:1004D00080FF08C080911301808F8689809313016B
:1004E00081E0878BEC85FD85858185FD03C0848156
:1004F00086FD04C0CE010E94FF01F4CFDF91CF91B1
:100500000895AF92BF92CF92DF92EF92FF920F9336
:100510001F93CF93DF936C017B018B01040F151F99
:10052000EB015E01AE18BF08C017D10759F0699101
:10053000D601ED91FC910190F081E02DC601099565
:10054000892B79F7C501DF91CF911F910F91FF9012
:10055000EF90DF90CF90BF90AF90089581E0089525
:10056000DC01ED91FC910088F189E02D23E030E081
:1005700009941F920F920FB60F9211242F933F935D
:100580004F935F936F937F938F939F93AF93BF939B
:100590004091AD285091AE286091AF287091B0285D
:1005A0008091AB289091AC282091A9283091AA285D
:1005B000420F531F611D711D2091A7283091A8285B
:1005C000820F931F883E23E0920730F0885E9340AD
:1005D0004F5F5F4F6F4F7F4F8093AB289093AC2856
:1005E0004093AD285093AE286093AF287093B02805
:1005F0008091A3289091A428A091A528B091A62825
:100600000196A11DB11D8093A3289093A428A093C7
:10061000A528B093A62881E08093B60ABF91AF9138
:100620009F918F917F916F915F914F913F912F910A
:100630000F900FBE0F901F9018951F920F920FB63C
:100640000F9211242F933F934F935F936F937F9358
:100650008F939F93AF93BF93EF93FF9388E098E2BC
:100660000E94C901FF91EF91BF91AF919F918F912E
:100670007F916F915F914F913F912F910F900FBE9E
:100680000F901F9018951F920F920FB60F92112482
:100690002F933F934F935F936F937F938F939F938A
:1006A000AF93BF93EF93FF93E0911428F091152837
:1006B000818181FD2FC0608180911A288F5F8F73A7
:1006C00090911B28891741F0E0911A28F0E0E85F2B
:1006D000F74D618F80931A288091A1289091A228CC
:1006E000009739F0DC01ED91FC910190F081E02D53
:1006F0000995FF91EF91BF91AF919F918F917F915C
:100700006F915F914F913F912F910F900FBE0F907E
:100710001F9018958081EDCF88ED90E084BF909375
:10072000610080E094E2A4EFB0E080930028909311
:100730000128A0930228B0930328809102068660C6
:10074000809302068091000681608093000680916C
:1007500002068F7C809302068091A0008F788093A0
:10076000A000809102068061809302061092E2054B
:1007700081E08093E40583E08093010A8FEF90E0AD
:100780008093260A9093270A80E890E08093380AA5
:100790009093390A80933A0A90933B0A80933C0ADB
:1007A00090933D0A8BE08093000A8091E50581607B
:1007B0008093E5058091E50582608093E505E0E89A
:1007C000FAE037E02FEF90E885E0318324879587C2
:1007D00080837096E03C4AE0F407B9F780E094E04B
:1007E00080930628909307288091062890910728E7
:1007F0002FEF30E0B9010E947504609304287093D4
:1008000005288091062890910728E8EEF3E0BF01C3
:100810000E9475046093A9287093AA2880910628E5
:1008200090910728BF010E9475048093A728909398
:10083000A8282093BC0A3093BD0A8091B50A816034
:100840008093B50A84E08093B00A8091B00A8160F9
:100850008093B00A789440E855E260E070E088E068
:1008600098E20E94B002C5E0D0E04CE050E06AE6B9
:100870007AE488E098E20E94810242E050E067E773
:100880007AE488E098E20E948102219771F7C0E043
:10089000D0E02097F1F30E940000FBCFE8E0F8E2FF
:1008A0001282138288EE93E0A0E0B0E08483958307
:1008B000A683B7838CEE99E48083918380E698E0E9
:1008C0008487958788E1868789E1878780E4808BA4
:1008D000128A138A148A158A86E2868B178A108EEA
:1008E0001092A1281092A2280895AA1BBB1B51E1C7
:1008F00007C0AA1FBB1FA617B70710F0A61BB70B90
:10090000881F991F5A95A9F780959095BC01CD0134
:100910000895A1E21A2EAA1BBB1BFD010DC0AA1F40
:10092000BB1FEE1FFF1FA217B307E407F50720F058
:10093000A21BB30BE40BF50B661F771F881F991FD3
:100940001A9469F760957095809590959B01AC011C
:10095000BD01CF010895052E97FB1EF400940E945F
:10096000C20457FD07D00E94890407FC03D04EF44F
:100970000C94C20450954095309521953F4F4F4FB0
:100980005F4F089590958095709561957F4F8F4F3B
:100990009F4F0895B7FF0C94D8040E94D804821B7F
:1009A000930B0895EE0FFF1F0590F491E02D09942D
:1009B0000E94E304A59F900DB49F900DA49F800D0D
:1009C000911D11240895A29FB001B39FC001A39F60
:1009D000700D811D1124911DB29F700D811D112478
:0809E000911D0895F894FFCF6A
:1009E800000000000E0281027B005F02AC008A005A
:1009F8009E00B002D100B800AE0200000003000162
:100A080002000001010000000000000000000000DA
:100A180000000000050400050602040103000100AF
:100A28000102030201000203040502030504020295
:100A38000005020105000401010404040303030383
:100A480005050303000001012010012040041002E5
:100A58000801020102040804020104081020040825
:100A6800201048656C6C6F20576F726C6421000D04
:020A78000A0072
:040A7A000024F40060
:00000001FF
